{
  "_format": "hh-sol-artifact-1",
  "contractName": "AgentBidArena",
  "sourceName": "contracts/AgentBidArena.sol",
  "abi": [
    {
      "anonymous": false,
      "inputs": [
        {
          "indexed": true,
          "internalType": "uint256",
          "name": "auctionId",
          "type": "uint256"
        },
        {
          "indexed": true,
          "internalType": "address",
          "name": "creator",
          "type": "address"
        },
        {
          "indexed": false,
          "internalType": "string",
          "name": "itemName",
          "type": "string"
        },
        {
          "indexed": false,
          "internalType": "uint256",
          "name": "startingPrice",
          "type": "uint256"
        },
        {
          "indexed": false,
          "internalType": "uint256",
          "name": "endBlock",
          "type": "uint256"
        }
      ],
      "name": "AuctionCreated",
      "type": "event"
    },
    {
      "anonymous": false,
      "inputs": [
        {
          "indexed": true,
          "internalType": "uint256",
          "name": "auctionId",
          "type": "uint256"
        },
        {
          "indexed": true,
          "internalType": "address",
          "name": "winner",
          "type": "address"
        },
        {
          "indexed": false,
          "internalType": "uint256",
          "name": "winningBid",
          "type": "uint256"
        },
        {
          "indexed": false,
          "internalType": "bool",
          "name": "hasBids",
          "type": "bool"
        }
      ],
      "name": "AuctionSettled",
      "type": "event"
    },
    {
      "anonymous": false,
      "inputs": [
        {
          "indexed": true,
          "internalType": "uint256",
          "name": "auctionId",
          "type": "uint256"
        },
        {
          "indexed": true,
          "internalType": "address",
          "name": "bidder",
          "type": "address"
        },
        {
          "indexed": false,
          "internalType": "uint256",
          "name": "bidAmount",
          "type": "uint256"
        }
      ],
      "name": "BidPlaced",
      "type": "event"
    },
    {
      "anonymous": false,
      "inputs": [
        {
          "indexed": true,
          "internalType": "uint256",
          "name": "auctionId",
          "type": "uint256"
        },
        {
          "indexed": true,
          "internalType": "address",
          "name": "bidder",
          "type": "address"
        },
        {
          "indexed": false,
          "internalType": "uint256",
          "name": "refundAmount",
          "type": "uint256"
        }
      ],
      "name": "BidRefunded",
      "type": "event"
    },
    {
      "inputs": [
        {
          "internalType": "uint256",
          "name": "",
          "type": "uint256"
        }
      ],
      "name": "auctions",
      "outputs": [
        {
          "internalType": "uint256",
          "name": "id",
          "type": "uint256"
        },
        {
          "internalType": "address",
          "name": "creator",
          "type": "address"
        },
        {
          "internalType": "string",
          "name": "itemName",
          "type": "string"
        },
        {
          "internalType": "uint256",
          "name": "startingPrice",
          "type": "uint256"
        },
        {
          "internalType": "uint256",
          "name": "endBlock",
          "type": "uint256"
        },
        {
          "internalType": "address",
          "name": "highestBidder",
          "type": "address"
        },
        {
          "internalType": "uint256",
          "name": "highestBid",
          "type": "uint256"
        },
        {
          "internalType": "bool",
          "name": "settled",
          "type": "bool"
        },
        {
          "internalType": "bool",
          "name": "hasBids",
          "type": "bool"
        }
      ],
      "stateMutability": "view",
      "type": "function"
    },
    {
      "inputs": [
        {
          "internalType": "string",
          "name": "itemName",
          "type": "string"
        },
        {
          "internalType": "uint256",
          "name": "durationInBlocks",
          "type": "uint256"
        },
        {
          "internalType": "uint256",
          "name": "startingPrice",
          "type": "uint256"
        }
      ],
      "name": "createAuction",
      "outputs": [
        {
          "internalType": "uint256",
          "name": "",
          "type": "uint256"
        }
      ],
      "stateMutability": "nonpayable",
      "type": "function"
    },
    {
      "inputs": [
        {
          "internalType": "uint256",
          "name": "auctionId",
          "type": "uint256"
        }
      ],
      "name": "getAuction",
      "outputs": [
        {
          "internalType": "uint256",
          "name": "id",
          "type": "uint256"
        },
        {
          "internalType": "address",
          "name": "creator",
          "type": "address"
        },
        {
          "internalType": "string",
          "name": "itemName",
          "type": "string"
        },
        {
          "internalType": "uint256",
          "name": "startingPrice",
          "type": "uint256"
        },
        {
          "internalType": "uint256",
          "name": "endBlock",
          "type": "uint256"
        },
        {
          "internalType": "address",
          "name": "highestBidder",
          "type": "address"
        },
        {
          "internalType": "uint256",
          "name": "highestBid",
          "type": "uint256"
        },
        {
          "internalType": "bool",
          "name": "settled",
          "type": "bool"
        },
        {
          "internalType": "bool",
          "name": "hasBids",
          "type": "bool"
        }
      ],
      "stateMutability": "view",
      "type": "function"
    },
    {
      "inputs": [],
      "name": "nextAuctionId",
      "outputs": [
        {
          "internalType": "uint256",
          "name": "",
          "type": "uint256"
        }
      ],
      "stateMutability": "view",
      "type": "function"
    },
    {
      "inputs": [
        {
          "internalType": "uint256",
          "name": "auctionId",
          "type": "uint256"
        }
      ],
      "name": "placeBid",
      "outputs": [],
      "stateMutability": "payable",
      "type": "function"
    },
    {
      "inputs": [
        {
          "internalType": "uint256",
          "name": "auctionId",
          "type": "uint256"
        }
      ],
      "name": "settleAuction",
      "outputs": [],
      "stateMutability": "nonpayable",
      "type": "function"
    }
  ],
  "bytecode": "0x60806040526001600260006101000a81548160ff021916908360ff16021790555034801561002c57600080fd5b50611d368061003c6000396000f3fe6080604052600436106100555760003560e01c80632dbddb411461005a5780632e99361114610097578063571a26a0146100c057806378bd7935146101055780639979ef451461014a578063fc52848214610166575b600080fd5b34801561006657600080fd5b50610081600480360381019061007c91906111ad565b610191565b60405161008e919061122b565b60405180910390f35b3480156100a357600080fd5b506100be60048036038101906100b99190611246565b6103f5565b005b3480156100cc57600080fd5b506100e760048036038101906100e29190611246565b6107b3565b6040516100fc9998979695949392919061134e565b60405180910390f35b34801561011157600080fd5b5061012c60048036038101906101279190611246565b6108e3565b6040516101419998979695949392919061134e565b60405180910390f35b610164600480360381019061015f9190611246565b610b71565b005b34801561017257600080fd5b5061017b611017565b604051610188919061122b565b60405180910390f35b60008083116101d5576040517f08c379a00000000000000000000000000000000000000000000000000000000081526004016101cc9061142e565b60405180910390fd5b60008060008154809291906101e99061147d565b919050559050600084436101fd91906114c5565b90506040518061012001604052808381526020013373ffffffffffffffffffffffffffffffffffffffff168152602001878152602001858152602001828152602001600073ffffffffffffffffffffffffffffffffffffffff1681526020016000815260200160001515815260200160001515815250600160008481526020019081526020016000206000820151816000015560208201518160010160006101000a81548173ffffffffffffffffffffffffffffffffffffffff021916908373ffffffffffffffffffffffffffffffffffffffff16021790555060408201518160020190816102ec9190611705565b50606082015181600301556080820151816004015560a08201518160050160006101000a81548173ffffffffffffffffffffffffffffffffffffffff021916908373ffffffffffffffffffffffffffffffffffffffff16021790555060c0820151816006015560e08201518160070160006101000a81548160ff0219169083151502179055506101008201518160070160016101000a81548160ff0219169083151502179055509050503373ffffffffffffffffffffffffffffffffffffffff16827f5db69880ecd741cb72927505845a9c757184babea65c98a27788100ff8fbd1868887856040516103e1939291906117d7565b60405180910390a381925050509392505050565b6001600260009054906101000a900460ff1660ff161461044a576040517f08c379a000000000000000000000000000000000000000000000000000000000815260040161044190611861565b60405180910390fd5b6000600260006101000a81548160ff021916908360ff1602179055506000600160008381526020019081526020016000209050600073ffffffffffffffffffffffffffffffffffffffff168160010160009054906101000a900473ffffffffffffffffffffffffffffffffffffffff1673ffffffffffffffffffffffffffffffffffffffff1603610510576040517f08c379a0000000000000000000000000000000000000000000000000000000008152600401610507906118cd565b60405180910390fd5b8060040154431015610557576040517f08c379a000000000000000000000000000000000000000000000000000000000815260040161054e90611939565b60405180910390fd5b8060070160009054906101000a900460ff16156105a9576040517f08c379a00000000000000000000000000000000000000000000000000000000081526004016105a0906119a5565b60405180910390fd5b60018160070160006101000a81548160ff0219169083151502179055508060070160019054906101000a900460ff161561073f5760008160060154905060008260010160009054906101000a900473ffffffffffffffffffffffffffffffffffffffff16905060008360050160009054906101000a900473ffffffffffffffffffffffffffffffffffffffff1690508073ffffffffffffffffffffffffffffffffffffffff16857f175136589aa527069381d42b4b969aef5e60ef214d71b047d65cca3407816ec18560016040516106829291906119c5565b60405180910390a360008273ffffffffffffffffffffffffffffffffffffffff16846040516106b090611a1f565b60006040518083038185875af1925050503d80600081146106ed576040519150601f19603f3d011682016040523d82523d6000602084013e6106f2565b606091505b5050905080610736576040517f08c379a000000000000000000000000000000000000000000000000000000000815260040161072d90611a80565b60405180910390fd5b50505050610793565b600073ffffffffffffffffffffffffffffffffffffffff16827f175136589aa527069381d42b4b969aef5e60ef214d71b047d65cca3407816ec160008060405161078a929190611adb565b60405180910390a35b506001600260006101000a81548160ff021916908360ff16021790555050565b60016020528060005260406000206000915090508060000154908060010160009054906101000a900473ffffffffffffffffffffffffffffffffffffffff169080600201805461080290611528565b80601f016020809104026020016040519081016040528092919081815260200182805461082e90611528565b801561087b5780601f106108505761010080835404028352916020019161087b565b820191906000526020600020905b81548152906001019060200180831161085e57829003601f168201915b5050505050908060030154908060040154908060050160009054906101000a900473ffffffffffffffffffffffffffffffffffffffff16908060060154908060070160009054906101000a900460ff16908060070160019054906101000a900460ff16905089565b60008060606000806000806000806000600160008c815260200190815260200160002060405180610120016040529081600082015481526020016001820160009054906101000a900473ffffffffffffffffffffffffffffffffffffffff1673ffffffffffffffffffffffffffffffffffffffff1673ffffffffffffffffffffffffffffffffffffffff16815260200160028201805461098290611528565b80601f01602080910402602001604051908101604052809291908181526020018280546109ae90611528565b80156109fb5780601f106109d0576101008083540402835291602001916109fb565b820191906000526020600020905b8154815290600101906020018083116109de57829003601f168201915b5050505050815260200160038201548152602001600482015481526020016005820160009054906101000a900473ffffffffffffffffffffffffffffffffffffffff1673ffffffffffffffffffffffffffffffffffffffff1673ffffffffffffffffffffffffffffffffffffffff168152602001600682015481526020016007820160009054906101000a900460ff161515151581526020016007820160019054906101000a900460ff1615151515815250509050600073ffffffffffffffffffffffffffffffffffffffff16816020015173ffffffffffffffffffffffffffffffffffffffff1603610b23576040517f08c379a0000000000000000000000000000000000000000000000000000000008152600401610b1a906118cd565b60405180910390fd5b806000015181602001518260400151836060015184608001518560a001518660c001518760e00151886101000151995099509950995099509950995099509950509193959799909294969850565b6001600260009054906101000a900460ff1660ff1614610bc6576040517f08c379a0000000000000000000000000000000000000000000000000000000008152600401610bbd90611861565b60405180910390fd5b6000600260006101000a81548160ff021916908360ff1602179055506000600160008381526020019081526020016000209050600073ffffffffffffffffffffffffffffffffffffffff168160010160009054906101000a900473ffffffffffffffffffffffffffffffffffffffff1673ffffffffffffffffffffffffffffffffffffffff1603610c8c576040517f08c379a0000000000000000000000000000000000000000000000000000000008152600401610c83906118cd565b60405180910390fd5b80600401544310610cd2576040517f08c379a0000000000000000000000000000000000000000000000000000000008152600401610cc990611b50565b60405180910390fd5b8060070160009054906101000a900460ff1615610d24576040517f08c379a0000000000000000000000000000000000000000000000000000000008152600401610d1b906119a5565b60405180910390fd5b8060070160019054906101000a900460ff16610d855780600301543411610d80576040517f08c379a0000000000000000000000000000000000000000000000000000000008152600401610d7790611be2565b60405180910390fd5b610dcc565b80600601543411610dcb576040517f08c379a0000000000000000000000000000000000000000000000000000000008152600401610dc290611c74565b60405180910390fd5b5b60008160050160009054906101000a900473ffffffffffffffffffffffffffffffffffffffff169050600082600601549050338360050160006101000a81548173ffffffffffffffffffffffffffffffffffffffff021916908373ffffffffffffffffffffffffffffffffffffffff16021790555034836006018190555060018360070160016101000a81548160ff0219169083151502179055503373ffffffffffffffffffffffffffffffffffffffff16847f0e54eff26401bf69b81b26f60bd85ef47f5d85275c1d268d84f68d6897431c4734604051610eae919061122b565b60405180910390a3600073ffffffffffffffffffffffffffffffffffffffff168273ffffffffffffffffffffffffffffffffffffffff1614158015610ef35750600081115b15610ff55760008273ffffffffffffffffffffffffffffffffffffffff1682604051610f1e90611a1f565b60006040518083038185875af1925050503d8060008114610f5b576040519150601f19603f3d011682016040523d82523d6000602084013e610f60565b606091505b5050905080610fa4576040517f08c379a0000000000000000000000000000000000000000000000000000000008152600401610f9b90611ce0565b60405180910390fd5b8273ffffffffffffffffffffffffffffffffffffffff16857fa59312996dc68b7f0224b341fed75d5afeb3bb20624107d37942d14f5942815684604051610feb919061122b565b60405180910390a3505b5050506001600260006101000a81548160ff021916908360ff16021790555050565b60005481565b6000604051905090565b600080fd5b600080fd5b600080fd5b600080fd5b6000601f19601f8301169050919050565b7f4e487b7100000000000000000000000000000000000000000000000000000000600052604160045260246000fd5b6110848261103b565b810181811067ffffffffffffffff821117156110a3576110a261104c565b5b80604052505050565b60006110b661101d565b90506110c2828261107b565b919050565b600067ffffffffffffffff8211156110e2576110e161104c565b5b6110eb8261103b565b9050602081019050919050565b82818337600083830152505050565b600061111a611115846110c7565b6110ac565b90508281526020810184848401111561113657611135611036565b5b6111418482856110f8565b509392505050565b600082601f83011261115e5761115d611031565b5b813561116e848260208601611107565b91505092915050565b6000819050919050565b61118a81611177565b811461119557600080fd5b50565b6000813590506111a781611181565b92915050565b6000806000606084860312156111c6576111c5611027565b5b600084013567ffffffffffffffff8111156111e4576111e361102c565b5b6111f086828701611149565b935050602061120186828701611198565b925050604061121286828701611198565b9150509250925092565b61122581611177565b82525050565b6000602082019050611240600083018461121c565b92915050565b60006020828403121561125c5761125b611027565b5b600061126a84828501611198565b91505092915050565b600073ffffffffffffffffffffffffffffffffffffffff82169050919050565b600061129e82611273565b9050919050565b6112ae81611293565b82525050565b600081519050919050565b600082825260208201905092915050565b60005b838110156112ee5780820151818401526020810190506112d3565b60008484015250505050565b6000611305826112b4565b61130f81856112bf565b935061131f8185602086016112d0565b6113288161103b565b840191505092915050565b60008115159050919050565b61134881611333565b82525050565b600061012082019050611364600083018c61121c565b611371602083018b6112a5565b8181036040830152611383818a6112fa565b9050611392606083018961121c565b61139f608083018861121c565b6113ac60a08301876112a5565b6113b960c083018661121c565b6113c660e083018561133f565b6113d461010083018461133f565b9a9950505050505050505050565b7f4475726174696f6e206d757374206265203e2030000000000000000000000000600082015250565b60006114186014836112bf565b9150611423826113e2565b602082019050919050565b600060208201905081810360008301526114478161140b565b9050919050565b7f4e487b7100000000000000000000000000000000000000000000000000000000600052601160045260246000fd5b600061148882611177565b91507fffffffffffffffffffffffffffffffffffffffffffffffffffffffffffffffff82036114ba576114b961144e565b5b600182019050919050565b60006114d082611177565b91506114db83611177565b92508282019050808211156114f3576114f261144e565b5b92915050565b7f4e487b7100000000000000000000000000000000000000000000000000000000600052602260045260246000fd5b6000600282049050600182168061154057607f821691505b602082108103611553576115526114f9565b5b50919050565b60008190508160005260206000209050919050565b60006020601f8301049050919050565b600082821b905092915050565b6000600883026115bb7fffffffffffffffffffffffffffffffffffffffffffffffffffffffffffffffff8261157e565b6115c5868361157e565b95508019841693508086168417925050509392505050565b6000819050919050565b60006116026115fd6115f884611177565b6115dd565b611177565b9050919050565b6000819050919050565b61161c836115e7565b61163061162882611609565b84845461158b565b825550505050565b600090565b611645611638565b611650818484611613565b505050565b5b818110156116745761166960008261163d565b600181019050611656565b5050565b601f8211156116b95761168a81611559565b6116938461156e565b810160208510156116a2578190505b6116b66116ae8561156e565b830182611655565b50505b505050565b600082821c905092915050565b60006116dc600019846008026116be565b1980831691505092915050565b60006116f583836116cb565b9150826002028217905092915050565b61170e826112b4565b67ffffffffffffffff8111156117275761172661104c565b5b6117318254611528565b61173c828285611678565b600060209050601f83116001811461176f576000841561175d578287015190505b61176785826116e9565b8655506117cf565b601f19841661177d86611559565b60005b828110156117a557848901518255600182019150602085019450602081019050611780565b868310156117c257848901516117be601f8916826116cb565b8355505b6001600288020188555050505b505050505050565b600060608201905081810360008301526117f181866112fa565b9050611800602083018561121c565b61180d604083018461121c565b949350505050565b7f5245454e5452414e43595f47554152445f5245454e5452414e545f43414c4c00600082015250565b600061184b601f836112bf565b915061185682611815565b602082019050919050565b6000602082019050818103600083015261187a8161183e565b9050919050565b7f41756374696f6e20646f6573206e6f7420657869737400000000000000000000600082015250565b60006118b76016836112bf565b91506118c282611881565b602082019050919050565b600060208201905081810360008301526118e6816118aa565b9050919050565b7f41756374696f6e20686173206e6f7420656e6465642079657400000000000000600082015250565b60006119236019836112bf565b915061192e826118ed565b602082019050919050565b6000602082019050818103600083015261195281611916565b9050919050565b7f41756374696f6e20616c726561647920736574746c6564000000000000000000600082015250565b600061198f6017836112bf565b915061199a82611959565b602082019050919050565b600060208201905081810360008301526119be81611982565b9050919050565b60006040820190506119da600083018561121c565b6119e7602083018461133f565b9392505050565b600081905092915050565b50565b6000611a096000836119ee565b9150611a14826119f9565b600082019050919050565b6000611a2a826119fc565b9150819050919050565b7f5472616e7366657220746f2063726561746f72206661696c6564000000000000600082015250565b6000611a6a601a836112bf565b9150611a7582611a34565b602082019050919050565b60006020820190508181036000830152611a9981611a5d565b9050919050565b6000819050919050565b6000611ac5611ac0611abb84611aa0565b6115dd565b611177565b9050919050565b611ad581611aaa565b82525050565b6000604082019050611af06000830185611acc565b611afd602083018461133f565b9392505050565b7f41756374696f6e2068617320656e646564000000000000000000000000000000600082015250565b6000611b3a6011836112bf565b9150611b4582611b04565b602082019050919050565b60006020820190508181036000830152611b6981611b2d565b9050919050565b7f426964206d7573742062652067726561746572207468616e207374617274696e60008201527f6720707269636500000000000000000000000000000000000000000000000000602082015250565b6000611bcc6027836112bf565b9150611bd782611b70565b604082019050919050565b60006020820190508181036000830152611bfb81611bbf565b9050919050565b7f426964206d7573742062652067726561746572207468616e2063757272656e7460008201527f2068696768657374206269640000000000000000000000000000000000000000602082015250565b6000611c5e602c836112bf565b9150611c6982611c02565b604082019050919050565b60006020820190508181036000830152611c8d81611c51565b9050919050565b7f526566756e64206661696c656400000000000000000000000000000000000000600082015250565b6000611cca600d836112bf565b9150611cd582611c94565b602082019050919050565b60006020820190508181036000830152611cf981611cbd565b905091905056fea26469706673582212202076fe283e1b8ddbabbe9d4c5c6afb2473742dcedb8a4c8140b4328da6b76b7864736f6c63430008180033",
  "linkReferences": {},
  "deployedLinkReferences": {}
}